:06000000020069020F532B
:03000B000232ECD2
:030013000232C5F1
:03001B0002330DA0
:030023000235C8DB
:03002B00020FBB06
:0300330002345B39
:03003B000235C9C2
:03004300020100B7
:03004B00022B0E77
:03005300020100A7
:03005B000232C6A8
:030063000232C79F
:0300C200020066D3
:03006600020FF096
:2001BE00AF82BF033B7800E2B4EE35788374A7F2087436F29036A7E4937885F208E4F290D5
:2001DE00E0001228557D007EE090E6B57401F090E6B3EEF090E6B4EDF090E6A07480F022FD
:2001FE0078AEEFF2780079AFE2F390369D022EAD78897401F208E4F2087460F27887E4F23C
:20021E0008F2788C04F208E4F2788E04F2758251122886E58260407801E2B4FF02803878A3
:20023E0001E2B4C201227801E2B4C02B788974C0F208743FF208E4F27887740CF208E4F229
:20025E00788C7429F208E4F2788E04F2758251122886E582600122903FC074F9F0788374C6
:20027E00E1F2087436F278857410F208E4F2903FC1122855903FD1E4F0A3F0A3F0A3F0222A
:20029E00903FC0E0FFBF4102800ABF4202800DBF431A8010903FC07410F08011903FC07473
:2002BE0020F08009903FC07430F0800122903ECA7401F0789374CAF208743EF208E4F27887
:2002DE00917407F208E4F2789604F208E4F2789804F278997408F2789A74FFF275825112EC
:2002FE002923903ECA74C0F0789374CAF208743EF208E4F27891F208F2789604F208E4F23C
:20031E00789804F278997408F2789A74FFF2758251122923903FC0E0903ECAF0789374CADD
:20033E00F208743EF208E4F278917405F208E4F2789604F208E4F2789804F278997408F26A
:20035E00789A74FFF2758251122923789374CAF208743EF208E4F27891740CF208E4F278CC
:20037E009604F208E4F2789804F278997408F2789A74FFF2758251022923780274F6F20885
:20039E007435F2903606E493FD1DC2D575F002ED30E704B2D5F404A430D50AF42401C5F041
:2003BE00F43400C5F0248DF582743635F0F583E493FCA3E493FD7804ECF208EDF27802E2AC
:2003DE00240CFA08E23400FB8A828B83E0FEA3E0FF903FC0E07C004206EC42078A828B83C0
:2003FE00EEF0EFA3F0903FC0E0C4540F2440FF7804E2F58208E2F583EFF07804E22401FEEF
:20041E0008E23400FF903FC0E0FD740F5D24308E828F83F07804E22403FE08E23400FF8EC1
:20043E00828F83788374C1F208743FF278857410F208E4F2122855903FC0E0FFBFF9287895
:20045E0002E22408F58208E23400F58374B4F07404A3F07802E2240AF58208E23400F583A7
:20047E007413F07486A3F0227806E25405600443B0202253B0DF22AF827806E24FF202040A
:20049E0086AF827806E25F600FEFF4FF7806E25FF212048675820122758200227807E26036
:2004BE000790E6A07401F02278077401F222AF82BF00028026BF01028005BF021A800C75B7
:2004DE008200C0071223AED0078010758201C0071223AED00780047582002278A9EFF278DB
:2004FE0008E4F27809F278B314F278B4F290369D12315175820122AF8278A9E2B4010280C2
:20051E000878A9E2B4020A80047E0080087E01800475820022780AE2B4011B8F058DF00502
:20053E00F0786B7401800225E0D5F0FBF28E82C00712240DD007EF2408F8790AE3F278B395
:20055E00EFF2780A79B4E2F390369D12315175820122E5822408F9E390E740F090E6B57452
:20057E0001F090E68AE4F090E68B04F090E6A003F02290E6B8E0FFE4BF400104FE60139082
:20059E00E6B9E0FDBDB00B7807E4F290E6A07480F022E4BFC00104FD7006EE7003020799FA
:2005BE0090E6B9E0FCE4BCA90104FB7008BC10028003020799EF235401FE7F0090E6BA78D2
:2005DE000DE0F2A3E008F290E6BE780FE0F2A3E008F27C00EB60057F5102068390E6BCE05E
:2005FE00FAA3E0FBC374039AE49B4079EA2A900610738006800A800E80127F517C068065C5
:20061E007F527C08805F7F537C088059780DE2FA08E2FBC3E49A74109B404AC002C003782C
:20063E000FE2FA08E2FBC3E49A74109BD003D0024033C002C003780D790FE3C5F0E225F033
:20065E00FA09E3C5F008E235F0FBC3E49A74109BD003D002400F7F517C0674702BFB780DA2
:20067E00EAF208EBF27807E4F2EF700790E6A07401F022780FE2F5F008E245F070012278CB
:20069E000FE2FA08E2FBC3EA9440EB940040047A407B00EE605190E6A0E020E1F9788974EF
:2006BE0040F20874E7F208E4F2788CEAF208E4F2780D7987E2F308E209F3788E7401F28FBD
:2006DE0082122886E582700790E6A07401F02290E6B57401F090E68AE4F090E68BEAF09070
:2006FE00E6A07480F0805790E6B57401F090E68AE4F090E68BF090E6A07480F090E6A0E056
:20071E0020E1F978937440F20874E7F208E4F27896EAF208E4F2780D7991E2F308E209F3CB
:20073E0078987401F27899ECF2789A74FFF28F82122923E582700790E6A07401F022C00410
:20075E008A08750900780FE2F50A08E2F50BE50AC39508FBE50B9509FC780FEBF208ECF2FB
:20077E00780DE2FA08E2FCE5082AFAE5093CFC780DEAF208ECF2D004020691ED7006EE7068
:20079E000302083C90E6B9E0FCBC1302800302083CEF235401FC90E6BAE0FF90E6BEE0FACD
:2007BE00A3E0FB7807E4F28F82C004C003C0021212C6E582D002D003D004605BEC6032905B
:2007DE00E6A0E020E1F98A04781AECF290E740C0041212F5E582D004603D90E6B57401F0A1
:2007FE0090E68AE4F090E68BECF090E6A07480F02290E6B57401F090E68AE4F090E68BF0B9
:20081E0090E6A07480F090E6A0E020E1F9781BEAF290E74002132690E6A07401F022ED6085
:20083E005990E6B9E0FCBC125190E6BEE0FBA3E0FCBB0146BC00437807E4F290E6A0E0201D
:20085E00E1F91212C3E58260067B027C0080047B007C007806E2FAEB420290E740EAF090CE
:20087E00E6B57401F090E68AE4F090E68B04F090E6A003F075820102049FEE700302098CF3
:20089E0090E6B9E0FCBC1102800302098C90E6BCE0FBA3E0FC4B6027C007780BE2FA08E2D8
:2008BE00FF74012AF50AE43FF50B8B028C07EAB50A06EFB50B028005D00702098CD0078B85
:2008DE00078C0690E6BEE0FAA3E0FD7807E4F2EF4E702878A1E4F278A27410F208E4F290BC
:2008FE003FD575F000C007C006C005C002122B0F1211B7D002D005D006D007EA4D60678A4B
:20091E00038D04C3EB9440EC940040047B407C0090E6B57401F090E68AE4F090E68BF090C3
:20093E00E6A07480F090E6A0E020E1F97818EBF290E740C007C006C005C003C00212122FF1
:20095E00D002D003D005D006D0078B0A750B008A088D09AB0AAC0BE508C39BFBE5099CFCDD
:20097E008B028C058095780BEFF208EEF222ED7006EE7003020A3890E6B9E0FCBC1802804F
:20099E0003020A3890E6BEE0FBA3E0FCBB1005BC00028003020A38EF235401FC7807E4F257
:2009BE00EC603690E6A0E020E1F9788374D5F208743FF278857410F208E4F290E740122882
:2009DE005590E6B57401F090E68AE4F090E68B7410F090E6A07480F022121283E58260330E
:2009FE0090E6B57401F090E68AE4F090E68BF090E6A07480F090E6A0E020E1F978837440EB
:200A1E00F20874E7F278857410F208E4F2903FD502285590E6A07401F022ED7006EE70039C
:200A3E00020AE190E6B9E0FCBC14028003020AE190E6BEE0FBA3E0FCBB0205BC00028003CD
:200A5E00020AE1EF235401FC90E6BCE0FB7807E4F2EC603890E6A0E020E1F978217440F213
:200A7E000874E7F28B821214E0E582700790E6A07401F02290E6B57401F090E68AE4F09081
:200A9E00E68B7402F090E6A07480F02290E6B57401F090E68AE4F090E68B7402F090E6A064
:200ABE007480F090E6A0E020E1F9781D7440F20874E7F28B821213B7E582700675820102F4
:200ADE00049522ED607290E6B9E0FCBC156A90E6BEE0FBA3E0FCBB025FBC005C90E6BCE064
:200AFE00FC7807E4F290E6A0E020E1F9903FC0E0FBBB321278467440F20874E7F28C821255
:200B1E001CB7AB828010782A7440F20874E7F28C82121753AB82EB700790E6A07401F022D4
:200B3E0090E6B57401F090E68AE4F090E68B7402F090E6A07480F022ED7006EE7003020CDE
:200B5E006590E6B9E0FCBC16028003020C6590E6BEE0FBA3E0FCBB0405BC00028003020C9C
:200B7E0065EF235401FC90E6BCE0FB7807E4F2EC606B90E6A0E020E1F9903FC0E0FCBC322D
:200B9E001E78537440F20874E7F2785574022440F2E434E708F28B82121EC6AC82801C787C
:200BBE00387440F20874E7F2783A74022440F2E434E708F28B8212195EAC82EC700790E6D0
:200BDE00A07401F02290E6B57401F090E68AE4F090E68B7404F090E6A07480F02290E6B5BC
:200BFE007401F090E68AE4F090E68B7404F090E6A07480F090E6A0E020E1F9903FC0E0FCE0
:200C1E00BC321E784A7440F20874E7F2784C74022440F2E434E708F28B82121D2AAC828050
:200C3E001C782E7440F20874E7F2783074022440F2E434E708F28B821217C3AC82EC7006E3
:200C5E0075820102049522ED606E90E6B9E0FCBC176690E6BEE0FBA3E0FCBB015BBC005809
:200C7E007807E4F27C0190E6A0E020E1F9903FC0E0FBBB3211785A7401F290E740C0041266
:200C9E002043D004800D783F7401F290E740121A73AC82EC700790E6A07401F02290E6B5A5
:200CBE007401F090E68AE4F090E68B04F090E6A003F075820402049FEE602F90E6B9E0FCB7
:200CDE00BC192790E6BEE0FBA3E0FC4B701C90E6BAE0FBA3E04B24FFE433F5827807E4F2B6
:200CFE0012136690E6A07480F022ED7006EE7003020DEB90E6B9E0FCBC1A028003020DEB11
:200D1E0090E6BEE0FBA3E0FCBB0205BC00028003020DEBEF235401FC90E6BCE0FB7807E457
:200D3E00F2EC603890E6A0E020E1F978277440F20874E7F28B82121683E582700790E6A0E9
:200D5E007401F02290E6B57401F090E68AE4F090E68B7402F090E6A07480F02290E6B57468
:200D7E0001F090E68AE4F090E68B7402F090E6A07480F090E6A0E020E1F978257440F208F4
:200D9E0074E7F28B8212159EE5827006758201020495789374E5F208743FF208E4F27891BC
:200DBE007431F208E4F278967404F208E4F2789804F278997408F2789A74FFF275825112F4
:200DDE002923E582700675820102049522ED7006EE7003020EB990E6B9E0FEBE1B0280031F
:200DFE00020EB990E6BEE0FCA3E0FEBC0205BE00028003020EB9EF235401FF90E6BCE0FE36
:200E1E007807E4F2EF604E90E6A0E020E1F9903FC0E0FFBF3000401E78677440F20874E72F
:200E3E00F2786974012440F2E434E708F28E821222EFE582700790E6A07401F02290E6B524
:200E5E007401F090E68AE4F090E68B7402F090E6A07480F02290E6B57401F090E68AE4F054
:200E7E0090E68B7402F090E6A07480F090E6A0E020E1F9903FC0E0FFBF3000401790E74098
:200E9E007865E0F290E7417866E0F28E821222B2E582700675820102049522ED603B90E697
:200EBE00B9E0FFBF0F3390E6BEE0FEA3E0FFBE0128BF00257807E4F290E6A0E020E1F99047
:200EDE00E7407401F090E6B5F090E68AE4F090E68B04F090E6A003F022ED605290E6B9E0AB
:200EFE00FFBFC04A90E6BCE0FF7807E4F2BF0437788374B9F2087436F29036B97885E493FB
:200F1E00F2A3E49308F290E0001228557E007FE090E6B57401F090E6B3EFF090E6B4EEF031
:200F3E0090E6A07480F02290E6A07401F02290E6A07401F022C0E0C000C0D075D000C2A89E
:200F5E0078117401F2D0D0D000D0E032903ECCE4F0A3F07811F2758204120495903FC0E0A0
:200F7E00FFBF3208903ECB121FC1800A783FE4F2903ECB121A73903ECBE0FF781D74CCF242
:200F9E0008743EF28F821213B7903FC0E0FFBF3209903ECBE0F5821220AED2A82253B0EFD4
:200FBE00C2CAC2CF32C0E0C082C08343B010D2CA5391EF90E65F74F3F0D083D082D0E0327A
:200FDE00020FC3020FC3020FC3020FC3020FC3020FC390E6007412F090E67A7401F01202A6
:200FFE000E12029E120398121357903FC0E0FFBF320F121BE0E582700B758201120495806A
:20101E00031216DA1211B11223411232C890E611E4F01232C890E610E4F043B53443B00473
:20103E0053B0CF75C801D2AD90E65EE043E0F3F0D2A8903FD1E0FCA3E0FDA3E0FEA3E0FFD0
:20105E00EC4D4E4F7003021186903FD17812E0F2A3E008F2A3E008F2A3E008F27D527816C0
:20107E00E4F208F243B010C0051211B7D0057812E2F5F008E242F008E242F008E245F070F3
:20109E00030211637C807812C3E2948008E2940008E2940008E2940050047812E2FC788943
:2010BE007400F20874E0F208E4F2788CECF208E4F278167987E2F308E209F3788E7401F20A
:2010DE008D82122886E582700875820112049580747818ECF290E000C005C00412122FD023
:2010FE0004D0058C027B007E007F007812E2C39AF208E29BF208E29EF208E29FF28C037FBE
:20111E00007816E2FA08E2FEEB2AFAEF3EFE7816EAF208EEF27816E2F5F008E245F06003FC
:20113E0002108C8D03EB04FDBD5402800302108C7D517816E2FA08E22470FB7816EAF20820
:20115E00EBF202108C7812E2F5F008E242F008E242F008E245F0700D121283E582700675D8
:20117E00820112049553B0EF758201122B637807E260031205907811E260F3120F6A80EE77
:2035F6001201000200000040B720B19D0001010203020A060002000000080000090400000B
:2036160000FFFFFF060904000102FFFFFF070904000102FFFFFF080904010000FFFFFF0657
:203636000904010102FFFFFF07070502020002000705040200020007058602000200070597
:2036560088020002000902000002010480FA12361B363F364D362D363636463654360000D6
:203676000902000001020580FA123624363F364D3600005B367636F236063719372D37694E
:203696003789379237A737F6350836028936088D3612034D005300460054003100300030A1
:2036B60000C00028000000000104000100000000000000000157494E55534200000000002D
:2036D600000000000000000000000039393939393939393939393939393939007768697488
:2036F60065717561726B20726573656172636800476C6173676F7720446562756720546F00
:203716006F6C0058582D585858585858585858585858585858580050697065205020617468
:20373600207B327835313242204550324F55542F455036494E7D2C2051206174207B327890
:2037560035313242204550344F55542F455038494E7D00506970652050206174207B34784E
:2037760035313242204550324F55542F455036494E7D0044697361626C656400446F7562CA
:203796006C652D6275666665726564203531324200517561642D6275666665726564203588
:0437B600313242006A
:20119E00E58030E30743B0087582012253B0F77582002243B50802119E1232C890E601E076
:2011BE0053E0FCF0903FC0E0FFBF10028014BF2002800FBF30028012BF3102800DBF3210AC
:2011DE00800843B50253B0FD800643B2025380FD90000112359853B2F743B31C439010536E
:2011FE0090F7903FC0E0FFBF10028014BF2002800FBF3002800FBF3102800ABF320A80058B
:20121E0043B00280034380029004B012359802119E75AF0385829B85839A90E67B7818E2D1
:20123E00F8E0A2E7C2949292D294A2E6C2949292D294A2E5C2949292D294A2E4C294929280
:20125E00D294A2E3C2949292D294A2E2C2949292D294A2E1C2949292D294A2E0C2949292E2
:20127E00D294D8BD227431C29400D294D5E0F853B3E3903FC0E0FFBF10028014BF20028008
:20129E000FBF30028014BF3102800FBF3214800A90E601E043E023F0800890E601E043E0FD
:2012BE0063F002119E02119EE5827819F2758210122641E582601978777401F208E4F2904D
:2012DE003E1975F060122675E58260047582012212265975820022AE82AF837582111226F6
:2012FE0041E582601C7D00781A797CE2F309E4F38E828F838DF01226FCE58260047582015D
:20131E002212265975820022AE82AF837D00781B7977E2F309E4F38E828F838DF012267580
:19133E00E582600E122659E5827003F582227582012212265975820022F9
:2013570074BE55B04480F5B043B5C153B07F22E582600453B07F2243B08022AF827E008F37
:2013770005BD0102800ABF02028009BD031180087E0C800B7E0D8007781CE270027E48EE9F
:201397007003F58222EE2EFE781CE24EF582122641E58270071226597582002275820122BA
:2013B700AF827E00781DE2F58208E2F583E0FCA3E0FDEF30E0027E01EF30E103430640EFC0
:2013D70030E013903FE5E0FAA3E0FBC3EA9CEB9D500475820022EF30E113903FE7E0FAA343
:2013F700E0FBC3EA9CEB9D500475820022EC4D700FEEF4FB52B0781FE4F27820F202149386
:201417008C028D03C3EA9472EB94064008747C9A74159B500475820022C006EA248EFAEBB5
:2014370034F9FB78BAEAF2E2F5F0EBC4C5F0C4540F65F0C5F0540FC5F065F0F2C5F008F2F5
:2014570090010DC007C006C005C0041232EDAA82AB83D004D005D006D007EBC4CAC4540F40
:201477006ACA540FCA6ACAFB74E0C39AFA740F9BFBFE781FEEF27820EAF2D006781CE4F2D8
:201497008F82C006C005C004121372E582D004D005D0067003F5822278777402F208E4F217
:2014B700903E1F75F060122675E582700712265975820022122659E5827003F58222EC4DF1
:2014D7006003EE42B075820122AF82BF01028005BF020A80047E0180087E40800475820091
:2014F70022EE55B070117821E2F58208E2F583E4F0A3F075820122781C7401F28F82121339
:2015170072E5827003F58222787C7402F208E4F2903E2375F0601226FCE5827003F5822238
:201537007823E2FE7F007824E27C004207EC42067821E2FC08E2FDEEC4CFC4540F6FCF548B
:201557000FCF6FCFFE74FFC39FFFE49EFE78BAEFF208EEF2900098C005C0041232ED78743D
:20157700740AF208E4F21225B4E5828583F0D004D0052472FE740635F0FF8C828D83EEF0E5
:20159700EFA3F075820122AF827825E2FD08E2FE8D828E83E0FBA3E0FC4B601D8B0C8C0D91
:2015B700C3E50C9472E50D9406400A747C950C7415950D500475820022750CBA750D3785E2
:2015D7000C82850D83E493FA700302167FEA5F7003021671782174CEF208743EF28A82C04C
:2015F70007C006C005C004C0031214E0E582D003D004D005D006D0077003F58222C00790C2
:201617003ECEE0FAA3E0FFC3EB9AEC9FD0075030850C82850D83E493FA781DEDF208EEF22C
:201637008A82C007C006C005C004C0031213B7E582D003D004D005D006D0077003F5822236
:20165700850C82850D83A3E49325E0FA24E5F582E4343FF583EBF0ECA3F07402250CF50CE1
:20167700E4350DF50D0215D675820122AF827EBA7D378E038D048B828C83E493FA6040EFC9
:20169700B5022F7827E2F52D08E2F52E8E828D83A3E49325E024E5F582E4343FF583E0FD32
:2016B700A3E0FE852D82852E83EDF0EEA3F07582012274022BFBE43CFC8B068C0580B7752A
:0316D7008200226C
:0637BA0001000201000005
:2016DA0090E670E043E001F05388FE22A982E3FE7F0009E37C004207EC4206EEC4CFC45412
:2016FA000F6FCF540FCF6FCFFE78BAEFF208EEF29001031232ED7874740AF208E4F20225F4
:20171A00B4AE82AF8378BAEEF208EFF290000A1232ED78747403F2087401F21225B4AE82F4
:20173A00E583C454F0CEC4CE6ECE54F0CE6EFF7829E2F9EFF309EEF322AF827DC07E378DEA
:20175A00038E048B828C83E493FA6059EFB502488D828E83A3E493FA786F742CF2786EE42F
:20177A00F278707402F28A82122501E5827003F58222782AE2F50E08E2F50F75822C121696
:20179A00E6858210858311850E82850F83E510F0E511A3F07582012274022BFBE43CFC8B22
:2017BA00058C06809E75820022AF827832E4F27833F27834740FF27835F4F278367403F228
:2017DA007837E4F2782EE2F58208E2F583E0FDA3E0FE8D038E04C3747C9B74159C4023C0F3
:2017FA00077830E2FB08E2FC8B828C83E0FAA3E0FF8A128F13C3747C951274159513D00745
:20181A00500475820022ED4E700C747CB512077415B51302803778297432F28D828E83C0A9
:20183A0007C004C00312171BD003D0048B828C83E0FBA3E0FC78297434F28B828C8312171F
:20185A001BD00778377414F2783774D4F27DC07E378D828E83E493FC700302195AEC5F7042
:20187A000302195074012DFBE43EFC8B828C83E493FA78727432F278717403F2787314F2D3
:20189A008A82C007C006C005C004C003122559E582D003D004D005D006D0077003F582221D
:2018BA008B828C83E493FA78727434F278717404F2787303F28A82C007C006C005C004C0E8
:2018DA0003122559E582D003D004D005D006D0077003F582228B828C83E493FA787274369E
:2018FA00F278717401F27873F28A82C007C006C005C004C003122559E582D003D004D00557
:20191A00D006D0077003F582228B828C83E493FB78727437F278717402F2787314F28B8290
:20193A00C007C006C005122559E582D005D006D0077003F5822274022DFDE43EFE02186B71
:20195A0075820122AF827DC07E378D038E048B828C83E493FA7003021A63EFB50202800364
:20197A00021A5574012DF514E43EF515851482851583E493FD786F743EF2786E7402F27808
:20199A007014F28D82122501E5827003F58222783EE270217838E2F58208E2F583E4F0A3F2
:2019BA00F0783AE2F58208E2F583747CF07415A3F075820122851482851583E493FD786F07
:2019DA00743CF2786E7403F2787014F28D82122501E5827003F582227838E2F51608E2F5D8
:2019FA001775823C1216E6AA82AE83851682851783EAF0EEA3F0851482851583E493FE785C
:201A1A006F743CF2786E7404F2787003F28E82122501E5827003F58222783AE2F51608E22A
:201A3A00F51775823C1216E6AA82AE83851682851783EAF0EEA3F07582012274022BFBE4B1
:201A5A003CFC8B058C0602196875820022E5805401B40100E433F58222AF83E5827840F214
:201A7A0008EFF27840E2F58208E2F583E4F07CC07D378C828D83E4937003021B9874012CCE
:201A9A00FAE43DFB8A828B83E493FF786F7442F2786E7401F27870F28F82C005C004C00373
:201ABA00C002122501E582D002D003D004D0057003F582227842E27003021B8E7843E4F206
:201ADA007840E2F58208E2F583E0FF8C828D83E49342077840E2F58208E2F583EFF08A825E
:201AFA008B83E493FF786F7443F2786E7402F2787014F28F82C005C004C003C00212250125
:201B1A00E582D002D003D004D0057003F58222783FE260308A828B83E493FA786F7442F2A7
:201B3A00786E7401F27870F28A82C005C004122501E582D004D0057003F582227843E2449A
:201B5A0004F280067843E254FBF28C828D83A3E493FF78727443F278717402F2787314F205
:201B7A008F82C005C004122559E582D004D0057003F5822274022CFCE43DFD021A8C7582AA
:021B9A00012226
:0637C00001540255000057
:201B9C00AF8278727444F278717412F27873E4F28F82C007122559E582D0077003F5822290
:201BBC00784474FFF278727444F2787174D2F278737401F28F82122559E5827003F58222CD
:201BDC00758201227EC67F378E828F83E49360378E828F83A3E493FCA3E493FD8C828D8338
:201BFC00E4F08E828F83A3A3A393F582C007C006121B9CE582D006D0077003F582227404F2
:201C1C002EFEE43FFF80C175820122E582F904F8E2FF7E007D008D248E238F228E21E3FA28
:201C3C00E4FBFEFFE5214202E5224203E5234206E524420778BCEAF208EBF208EEF208EFA0
:201C5C00F2900005E4F5F012330FAC82AD83AEF0C313FFEE13FEED13FDEC13FCEFC313EE49
:201C7C0013ED13FDEC13F5828D8322AE82AF83EE2EF582EF33F583E5822582F582E58333E1
:201C9C00F58378747405F208E4F21225B4AE82AF837845E2F9EEF309EFF322AF827DC67EB6
:201CBC00378D038E048B828C83E493FA605CEFB5024B8D828E83A3A3A3E493FA786F744858
:201CDC00F2786E7488F278707402F28A82122501E5827003F582227846E2F52508E2F5265C
:201CFC00758248121C27858227858328852582852683E527F0E528A3F07582012274042B23
:201D1C00FBE43CFC8B058C06809B75820022AF82784EE4F2784FF2785074F8F27851747FD2
:201D3C00F2785274FFF2784AE2F58208E2F583E0FDA3E0FE8D038E04C3747C9B74159C40B6
:201D5C001DC007784CE2FB08E2FC8B828C83E0FAA3E0FFC3747C9A74159FD00750047582ED
:201D7C000022ED4E601E7845744EF28D828E83C007C004C003121C87D003D004D007785290
:201D9C00E254FEF28B828C83E0FDA3E0FE8D038E04BB7C05BC1502801678457450F28D823E
:201DBC008E83C007121C87D0077852E254FDF27DC67E378D828E83E493FC7003021EC2ECE8
:201DDC005F7003021EB874032DFBE43EFC8B828C83E493FA7872744EF278717458F27873C3
:201DFC007402F28A82C007C006C005C004C003122559E582D003D004D005D006D0077003E7
:201E1C00F582228B828C83E493FA78727450F278717457F278737402F28A82C007C006C08E
:201E3C0005C004C003122559E582D003D004D005D006D0077003F582228B828C83E493FA41
:201E5C0078727452F2787174D2F278737401F28A82C007C006C005C004C003122559E58275
:201E7C00D003D004D005D006D0077003F582228B828C83E493FB78727452F278717403F28F
:201E9C007873E4F28B82C007C006C005122559E582D005D006D0077003F5822274042DFDDF
:201EBC00E43EFE021DCF75820122AF827DC67E378D038E048B828C83E493FA7003021FBDB5
:201EDC00EFB502028003021FAF74032DF529E43EF52A852982852A83E493FD786F7457F26E
:201EFC00786E7458F278707402F28D82122501E5827003F582227857E270147858E2700FB2
:201F1C007853E2F58208E2F583E4F0A3F0801E7853E2F52B08E2F52C758257121C27AA8273
:201F3C00AE83852B82852C83EAF0EEA3F0852982852A83E493FE786E7457F2786F7457F275
:201F5C0078707402F28E82122501E5827003F582227857E2FEBEF8197858E2FEBE7F127865
:201F7C0055E2F58208E2F583747CF07415A3F0801E7855E2F52B08E2F52C758257121C271E
:201F9C00AA82AE83852B82852C83EAF0EEA3F07582012274042BFBE43CFC8B058C06021EF1
:201FBC00D075820022AE82AF83E4F07CC67D378C828D83E493606C8C828D83A3A3A3E49311
:201FDC00FB786F7459F2786E7480F2787023F28B82C007C006C005C004122501E582D004E5
:201FFC00D005D006D0077003F582227859E2540F60288E828F83E0FB8C828D83E4934203C2
:20201C008E828F83EBF08C828D83A3E493FAA3E493FB8A828B837859E2F074042CFCE43DE2
:20203C00FD808C75820122AE82AF83E4F07CC67D378C828D83E493FB6057C00374012CF595
:20205C002DE43DF52E852D82852E83E493FAA3E493FB8A828B83E0FA540F7004D0038028BD
:20207C00D0038E828F83E0FA42038E828F83EBF0785AE26013852D82852E83E493FAA3E4AA
:20209C0093FB8A828B83E4F074042CFCE43DFD80A022AF827DC67E378D828E83E493FC707C
:2020BC00030221CEEC5F70030221C474032DFBE43EFC8B828C83E493FA786F745BF2786E93
:2020DC007458F278707402F28A82C007C006C005C004C003122501E582D003D004D005D006
:2020FC0006D0077003F582228B828C83E493FA786F745DF2786E7457F278707402F28A82A5
:20211C00C007C006C005C004C003122501E582D003D004D005D006D0077003F582228B82E9
:20213C008C83E493F582C007C006C005C004C003121B9CE582D003D004D005D006D00770E4
:20215C0003F582228B828C83E493FA7872745BF278717458F278737402F28A82C007C006FC
:20217C00C005C004C003122559E582D003D004D005D006D0077003F582228B828C83E49338
:20219C00FB7872745DF278717457F278737402F28B82C007C006C005122559E582D005D087
:1621BC0006D0077003F5822274042DFDE43EFE0220B47582012272
:0C37C60001D03E4002D13E410000000056
:2021D200AF827E008F05BD01028005BF020880047E2080027E21EE7003F58222EE2EFE78CD
:2021F2005FE24EF582122641E5827003F5822275820122AF82785FE4F28F821221D2E58266
:20221200603878777401F208E4F2903E6075F060122675E582602378777401F208E4F29092
:202232003E6175F060122675E582600E122659E5827003F582227582012212265975820000
:2022520022AF82785FE4F28F82C0071221D2E582D007604578777401F208E4F2903E6275D3
:20227200F060122675E5826030785F7401F28F821221D2E58260227863E2FD08E2FE7F00FA
:20229200787C7401F208E4F28D828E838FF01226FCE5826004758201221226597582002291
:2022B200AF8278607401F278667961E2F38F82C007122205E582D0077003F582227865E2F5
:2022D200F4F278607403F278657961E2F38F82122205E5827003F5822275820122AF8278B9
:2022F200627401F278697963E2F308E209F38F82C007122253E582D0077003F58222786208
:202312007403F278677963E2F308E209F38F82122253E5827003F582227867E2FE08E2FF19
:0F2332008E828F83E0F48E828F83F0758201227A
:202341001232C890E60B7403F01232C890E6017480F01232C890E6047480F01232C890E635
:2023610009E4F01232C890E6027498F01232C890E60374FEF01232C890E670E043E080F0B3
:202381001232C890E618E053E0FEF01232C890E619E053E0FEF01232C890E61AE053E0FE58
:2023A100F01232C890E61BE053E0FEF022E582FF60067E007D0080047E027D801232C89008
:2023C100E6047480F01232C890E61274A04EF01232C890E61374204DF01232C890E61474D8
:2023E100E04EF01232C890E61574604DF0EF60067D017E0080047D037E00786BEDF28F8270
:2024010012240D1232C890E604E4F022AF82786BE25401605F1232C890E618E4F01232C878
:2024210090E604E043E002F01232C890E6497482F01232C890E6497482F0EF60121232C85D
:2024410090E6497482F01232C890E6497482F01232C890E6187410F01232C890E61AE4F0A7
:202461001232C890E604E043E006F01232C890E61A7404F0786BE25402604A1232C890E691
:2024810019E4F01232C890E604E043E004F01232C890E6497484F01232C890E6497484F06B
:2024A1001232C890E6197410F01232C890E61BE4F01232C890E604E043E008F01232C8907E
:0624C100E61B7404F0228A
:2024C700E5822582FF74014FF582122641E5826022786CE2FD7E007F60786D797CE2F30973
:2024E700E4F38D828E838FF01226FCE58260047582012212265975820022E5822582FFF59A
:2025070082122641E582604378777401F208E4F2903E6E75F060122675E582602E74014F14
:20252700F582122641E5826022786FE2FD7E007F607870797CE2F309E4F38D828E838FF067
:202547001226FCE58260047582012212265975820022E582FF25E0F582122641E582604649
:2025670078777401F208E4F2903E7175F060122675E58260317873E2601E7872E2FD7E00E5
:202587007F6078737977E2F309E4F38D828E838FF0122675E582600E122659E5827003F544
:0D25A70082227582012212265975820022BF
:2025B400AE82AF837C007D007B10EF235401FAEE2EFEEF33FFEC2CFCED33FDEA60034304C0
:2025D400017874C3E2F5F0EC95F008E2F5F0ED95F040117874D3E29CF4B3FCB308E29DF45F
:0E25F400FD430601EB14FB70C18E828F832223
:20260200C007C000AF8290E678E020E00E7876E260F47876E4F2758200801F90E678E030A8
:20262200E2057582008013EF600D90E678E0FFA2E1E433F5828003758201D000D00722C0E9
:2026420007AF8290E6787480F090E679EFF0758201122602D0072290E678E030E20475829A
:20266200002290E6787440F090E678E020E6F975820122C007C006C004C003C002C000AF78
:20268200F0AE83E5827879F208EEF208EFF27877E2F5F008E245F07005758201804F7B0070
:2026A2007C007877E2B5030708E2B50402802B7879E22BFA08E23CFE08E2FF8A828E838F0B
:2026C200F01235CDFA90E679F0758201122602E58260070BBB00CB0C80C87877E2B50308A5
:2026E20008E2B50403D38001C3E433F582D000D002D003D004D006D00722C007C006C00523
:20270200C004C003C002C001C000AFF0AE83E582787EF208EEF208EFF2787CE2F5F008E258
:2027220045F07006758201022844787CE2FB08E2FCBB0109BC000690E6787420F090E679E7
:20274200E07B007C007881E4F208F27881797CE2F5F0E3B5F00C08E2F5F009E3B5F0030229
:20276200281E758200122602E58270030228317881E2FD08E2FE74022DFDE43EFE787CE255
:20278200B5050708E2B506028002800690E6787420F07881E2FD08E2FE0DBD00010E787CC8
:2027A200E2B5050708E2B506028002803575AF03759AE6759B7890E67B7440F0E0ACE07879
:2027C2007E7981E3C5F0E225F0FD09E3C5F008E235F0FE08E2FF8D828E838FF0EC1232D1BC
:2027E2008025787E7981E3C5F0E225F0FD09E3C5F008E235F0FE08E2FF90E679E0FA8D8247
:202802008E838FF01232D17881E22401F208E23400F27881E2FB08E2FC02274D90E678E00F
:2028220030E205758200801A90E678E020E6F9787CE2B5030808E2B50403D38001C3E433B7
:13284200F582D000D001D002D003D004D005D006D007224E
:20285500AA82AB837883E2FC08E2FD7885E2FE08E2FFEE60010FEF601775AF078A9B8B9A4A
:112875008C9E8D9D90E67CE090E67BF0DEF6DFF42282
:20288600C007C006C005C001C000AF82788EE260127888E2FE788FEEF27887E2FE7890EE38
:2028A600F280087887E2FE788FEEF2EF2FFFF582122641E5826055788EE2FDE23395E0FE3C
:2028C6000DBD00010E7877EDF208EEF2903E8F75F060122675E582603374014FF582122627
:2028E60041E5826027788C797CE2F308E209F37889E2F58208E2F58308E2F5F01226FCE54B
:20290600827004F582800B7582018006122659758200D000D001D005D006D00722C007C0E7
:2029260006C005C004C003C002C001C000AF82789BE4F208F2EF2FFFF582122641E5827004
:2029460003022ADE7899E2FC8CF005F07B017C008006EB2BFBEC33FCD5F0F7789B7996C3B9
:20296600E3F5F0E295F009E3F5F008E295F04003022ADE7898E260127892E2FA789DEAF25A
:202986007891E2FA789EEAF280087891E2FA789DEAF2C003C0047898E2FAE23395E0FC0AF9
:2029A600BA00010C7877EAF208ECF2903E9D75F060122675E582D004D0037003022ADEC071
:2029C600077891E2F58208E2F5838B028C0778C8EAF208EFF2C007C004C003C002C001C070
:2029E6000012345DAD82AE83D000D001D002D003D004D007EAC39DFAEF9EFF789FEAF20812
:202A0600EFF27896799BE3F5F0C3E295F0FE09E3F5F008E295F0FF789FC3E2F5F0EE95F06A
:202A260008E2F5F0EF95F0D00750207896799BE3F5F0C3E295F0C0E009E3F5F008E295F012
:202A4600C0E078A0D0E0F218D0E0F27893799BE3C5F0E225F0FA09E3C5F008E235F0FD08FF
:202A6600E2FE789F7977E2F308E209F38A828D838EF0122675E582605F122659E5827004D5
:202A8600F58280737E00789AE2600B789AC3E2F5F0EE95F0500C8F82122641E58270030E0C
:202AA60080E4789AE2B50605758200804A7891799FE3C5F0E225F0F209E3C5F008E235F0E5
:202AC600F2789B799FE3C5F0E225F0F209E3C5F008E235F0F2022961122659789B7996E28F
:202AE600F5F0E3B5F00C08E2F5F009E3B5F003D38001C3E433F582D000D001D002D003D039
:082B060004D005D006D007221F
:06009800E478FFF6D8FD3C
:012B0E003294
:202B0F00AFF0AE83E58278A4F208EEF208EFF278A4E2FA08E2FB08E2FC78A2E2F52D08E2C5
:202B2F00F52EAE2DAF2E152D74FFB52D02152EEE4F60138A828B838CF078A1E21232D1A3D6
:142B4F00AA82AB8380DC78A4E2F58208E2F58308E2F5F022F4
:202B6300AF8278A8E4F278A9F2D2E890E668E043E008F090E65CE043E001F090E65D740177
:202B8300F0D2AF90E680E020E10890E680E043E002F0EF600E90E680E043E008F090000A0F
:202BA3001235A290E680E053E0F7F022AF82BF00028037BF01028036BF02028039BF0402B5
:202BC3008038BF06028037BF08028036BF80028019BF8102801CBF8202801BBF8402801AC8
:202BE300BF86028019BF881E801890E6A02290E6A12290E6A22290E6A32290E6A42290E65D
:202C0300A52290E6A62290000022C020C0E0C0F0C082C083C007C006C005C004C003C002AA
:202C2300C001C000C0D075D000C08675860090E6B8E0FFE4BF800104FE601B90E6B9E0FD40
:202C4300BD061390E6BAE0FCA3E0F5827800ECF21201BE022E85EF702790E6B9E0FDBD0961
:202C63001F90E6BAE0F5821204CCE582600990E6A07480F0022E8590E6A07401F0022E851A
:202C8300EE600E90E6B9E0FDBD08061234F8022E858F05BD012F90E6B9E0FDBD0B2790E619
:202CA300BCE0FD90E6BA780AE0F28D82120515E582600990E6A07480F0022E8590E6A074B0
:202CC30001F0022E85E4BF810104FD601490E6B9E0FCBC0A0C90E6BCE0F582120570022E94
:202CE30085EF703790E6B9E0FCBC032F90E6BAE0FBA3E0FCBB0110BC000D78A87401F29087
:202D0300E6A003F0022E85BB0205BC00028003022E8590E6A07480F0022E85EE603590E622
:202D2300B9E0702F78A7E2FE78A8E225E0FC420690E740EEF090E741E4F090E6B504F0903E
:202D4300E68AE4F090E68B7402F090E6A07480F0022E85ED602890E6B9E0702290E740E465
:202D6300F090E741F090E6B504F090E68AE4F090E68B7402F090E6A07480F0022E85BF02EE
:202D8300028003022E3090E6B9E0FEBE03028008BE01028003022E3090E6BAE0FDA3E0FEC1
:202DA3004D6003022E8590E6BCE0F582122BAFAD82AE83ED4E7003022E8590E6B9E0FCBCAC
:202DC30003188D828E83E0FC4304018D828E83ECF090E6A07480F0022E8590E6BCE0F5825D
:202DE300C006C0051234E6E582D005D0067003022E858D828E83E0FC5304FE8D828E83EC82
:202E0300F090E6BCE0FDA3E08D0453040F530580E4C423CDC423541F6DCD541FCD6DCDFEBA
:202E230090E683ED4CF0E043E020F08055BF824C90E6B9E0704690E6BCE0F582122BAFAE10
:202E430082AF83EE4F603B8E828F83E0FE5306017F00EE4FB40100B3E433FF90E740F09018
:202E6300E741E4F090E6B504F090E68AE4F090E68B7402F090E6A07480F0800690E6B81239
:202E830004BA5391EF90E65D7401F0D086D0D0D000D001D002D003D004D005D006D007D004
:202EA30083D082D0F0D0E0D02032AE82AF8378AEE2B4012C78AFE270278E828F83E493FC28
:202EC300A3E493FD7883ECF208EDF28C828D83E4937885F208E4F290E0001228550231364E
:202EE30078AEE2B4063C78AFE270378E828F83A3A3E493FCA3E493FD4C700790E6A07401E1
:202F0300F0228C028D037883EAF208EBF28C828D83E4937885F208E4F290E000122855025F
:202F2300313678AEE2B4020280030230548E828F83A3A3A3A3E493FD78AFC3E29D4003028E
:202F430030548E828F83A3A3A3A3A3E493FCA3E493FD78AFE275F002A42CF582ED35F0F551
:202F630083E493FCA3E493FD74092CFAE43DFB78B0EAF208EBF2087480F28C028D03788392
:202F8300EAF208EBF28C828D83E4937885F208E4F290E000C005C004122855D004D0058C4E
:202FA300828D83E4932400FCE434E0FD78B0E2F51808E2F51908E2F51A8C1B8D1C85188279
:202FC300851983851AF01235CDFAA31235CDFB7883EAF208EBF28A828B83E4937885F2083A
:202FE300E4F2851B82851C83C005C004122855D004D005851882851983851AF01235CDFA14
:20300300A31235CDFB8A828B83E4932CFCE43DFD74022518F518E43519F519851882851967
:2030230083851AF01235CDFAA31235CD4A708A90E002E0FAA3E0FB4A6003023136ECC3944F
:2030430000FCED94E0FD90E002ECF0EDA3F002313678AEE2B4030474018001E4FD60227848
:20306300AFE2701D788374D2F2087437F29037D2E4937885F208E4F290E000122855023148
:2030830036ED700302312F78AFE2FC7D0024FFFAED34FFFB74072EF582E43FF583C006C03A
:2030A30007E493FF7E00C3EA9FEB64808EF063F08095F0D007D006507374082EF582E43F6D
:2030C300F583E493FEA3E493FF1CBCFF011DEC2CFCED33FDEC2EF582ED3FF583E493FEA374
:2030E300E493FF90E0007402F090E00104F074012401FCE434E0FD8E828F83E493FB60336A
:203103000EBE00010F8C828D83EBF074012CFAE43DFB8A828B83E4F0042AFCE43BFD90E07C
:2031230000E0FB0B0B90E000EBF080CB90E6A07401F0227E007FE090E6B57401F090E6B3D2
:20314300EFF090E6B4EEF090E6A07480F022AE82AF83A3A3A3A3A3E493FCA3E493FD7404D6
:203163002EFEE43FFF78B5E4F28E828F83E493FA78B5C3E29A400122C006C00778B5E27588
:20318300F002A42CF582ED35F0F583E493FBA3E493FA74092BFEE43AFF78B6EEF208EFF229
:2031A300087480F27F008B828A83A3A3A3A3A3E493FE78A9E2B506028007D007D0060232B9
:2031C300BCD007D00678B6E2F52D08E2F52E08E2F52FC004C005852D82852E83852FF0128D
:2031E30035CDFAA31235CDFD8A828D83A3E493F5307404B530028006D005D0048047D00597
:20320300D004852D82852E83852FF01235CDF531A31235CDF532853182853283A3A3E49382
:20322300FA78B3E2B50214853182853283A3A3A3E493FA78B4E2B5020280047A0080027A2C
:20324300018A0780517405B5304CEF6049C004C005852D82852E83852FF01235CDFAA3126C
:2032630035CDFD8A828D83A3A3E493FD740F5DFC530580E423CDC423541F6DCD541FCD6DAD
:20328300CD30E40244E0FA90E683ED4CF0E043E020F0D005D0047402252DF52DE4352EF526
:2032A3002E852D82852E83852FF01235CDFAA31235CDFB4A60030231D578B5E22401F20232
:0232C300316C6C
:0437D20004030904DF
:0132C50032D6
:200076007900E94400601B7A009037D678D275923EE493F2A308B800020592D9F4DAF27530
:0200960092FFD7
:0132C60032D5
:0132C70032D4
:03010000022C0DC1
:030104000235CAF7
:030108000234E4DA
:03010C000235C6F3
:030110000235CCE9
:030114000235F0C1
:030118000234E1CD
:03011C000201B825
:03012000020FDEED
:03012400020FE1E6
:030128000234F5A9
:03012C000235EFAA
:03013000020FE4D7
:03013400020FE7D0
:03013800020FEAC9
:03013C00020FEDC2
:030140000234F294
:030144000201B8FD
:030148000235E994
:03014C000235EA8F
:030150000235EB8A
:030154000235EC85
:030158000235ED80
:03015C000235EE7B
:030160000235CB9A
:030164000201B8DD
:030168000201B8D9
:03016C000201B8D5
:030170000234F462
:030174000234F65C
:0301780002351538
:03017C0002351732
:030180000234F74F
:030184000235162B
:0301880002351825
:03018C000235C772
:0301900002345CDA
:030194000234E250
:030198000234E549
:03019C000234F139
:0301A0000234E046
:0301A4000234E33F
:0301A8000234F02E
:0301AC000234F327
:0301B00002330E09
:0301B4000235F51C
:0101B8003214
:0932C800000000000000000022DB
:1B32D10020F71130F6138883A88220F509F6A8837583002280FEF280F5F022FC
:0132EC0032AF
:2032ED00AA83AB828BF0903EBAE0A4F8A9F08AF0E0A429F98BF0A3E0A429F583888222229E
:01330D00328D
:01330E00328C
:20330F00AF82AE83ADF0FC78C0EFF208EEF208EDF208ECF278C0E2FF78BEE28FF0A4FFADD5
:20332F00F078C6EFF208EDF278C0E2FF78BCE28FF0A4FFADF078C4EFF208EDF278C7E2FF76
:20334F0078C3E2FE78BCE28EF0A42FFF78C7F278C2E2FE78BDE28EF0A42F78C7F278C6E2D9
:20336F00FE08E2FF78C2E2FD78BCE28DF0A4ABF02EFEEB3FFF78C6EEF208EFF278C1E2FDF8
:20338F0078BDE28DF0A4ABF02EFEEB3FFF78C6EEF208EFF278C1E2FF78BEE28FF0A478C35F
:2033AF00F278C1E2FF78BCE28FF0A4FFADF078C1EFF208EDF278C0E2FF78BFE28FF0A4784F
:2033CF00BFF278C0E2FF78BDE28FF0A4FFADF078BDEFF208EDF278BCE4F278C0F278C4E2EF
:2033EF00F52D08E2F52E08E2F52F08E2F53078C0E2FA08E2FB08E2FE08E2FFEA252DF52D4A
:20340F00EB352EF52EEE352FF52FEF3530F53078C4E52DF208E52EF208E52FF208E530F2D3
:20342F0078C4E208E208E208E278BCE2FC08E2FD08E2FE08E2FFEC252DFCED352EFDEE352D
:0C344F002FFEEF35308C828D838EF02232
:01345B00323E
:01345C00323D
:20345D00AE82AF837D007C0078C9E2235401FB703578C8E225E0F208E233F278C8C3E2F5B7
:20347D00F0EE95F008E2F5F0EF95F0501478C8E2F5F008E2C313C5F01318F2C5F008F2805D
:20349D00050C8C0580C278C8C3E2F5F0EE95F008E2F5F0EF95F0400E78C8D3E29EF4B3FE25
:2034BD00B308E29FF4FF78C8E2F5F008E2C313C5F01318F2C5F008F28D041DEC70C88E8296
:0334DD008F8322B8
:0134E00032B9
:20009E0078CAE84400600A790075923EE4F309D8FC7808E84400600C7901903ECAE4F0A357
:0400BE00D8FCD9FA97
:0134E10032B8
:0134E20032B7
:0134E30032B6
:0134E40032B5
:0134E50032B4
:0A34E60090E6A07480F075820122C8
:0134F00032A9
:0134F10032A8
:0134F20032A7
:0134F30032A6
:0134F40032A5
:0134F50032A4
:0134F60032A3
:0134F70032A2
:1D34F80090E74078A9E2F090E6B57401F090E68AE4F090E68B04F090E6A003F02289
:013515003283
:013516003282
:013517003281
:013518003280
:20351900E583700BE58224FA400122B4001122E5826003D5E0FD0075E0FED583F674F9D581
:20353900E0FD22C007C006C001C000AE82AF83EE2EF8EF33F9EE28FEEF39FF90E600E0F84B
:20355900794C20E416C3EF13CE13CEFF795AE820E309C3EF13CE13CEFF7963E58124FAF86E
:20357900E926C313C313F9C3EE99F582EF9400F583D000D001D006D007500122023519743D
:2035990011C0E012353C158122C007C006AE82AF837411C0E0EE4F600D1EBEFF011F9003DA
:0D35B900E812353C80EF1581D006D00722C6
:0135C60032D2
:0135C70032D1
:0135C80032D0
:0135C90032CF
:0135CA0032CE
:0135CB0032CD
:0135CC0032CC
:0D0069007581321235F1E5826003020066F8
:1C35CD0020F71430F6148883A88220F507E6A88375830022E280F7E49322E0220D
:0135E90032AF
:0135EA0032AE
:0135EB0032AD
:0135EC0032AC
:0135ED0032AB
:0135EE0032AA
:0135EF0032A9
:0135F00032A8
:0435F10075820022BD
:0135F50032A3
:00000001FF
